{
	"contracts/ContractMappingStruct.sol": {
		"ContractMappingStruct": {
			"abi": [
				{
					"inputs": [
						{
							"internalType": "address",
							"name": "",
							"type": "address"
						}
					],
					"name": "balances",
					"outputs": [
						{
							"internalType": "uint256",
							"name": "totalBalance",
							"type": "uint256"
						},
						{
							"internalType": "uint256",
							"name": "numOfDeposits",
							"type": "uint256"
						},
						{
							"internalType": "uint256",
							"name": "numOfWithdrawals",
							"type": "uint256"
						}
					],
					"stateMutability": "view",
					"type": "function"
				},
				{
					"inputs": [],
					"name": "depositMoney",
					"outputs": [],
					"stateMutability": "payable",
					"type": "function"
				},
				{
					"inputs": [
						{
							"internalType": "address payable",
							"name": "_to",
							"type": "address"
						},
						{
							"internalType": "uint256",
							"name": "_amount",
							"type": "uint256"
						}
					],
					"name": "withdrawMoney",
					"outputs": [],
					"stateMutability": "nonpayable",
					"type": "function"
				}
			],
			"devdoc": {
				"kind": "dev",
				"methods": {},
				"version": 1
			},
			"evm": {
				"assembly": "    /* \"contracts/ContractMappingStruct.sol\":57:1133  contract ContractMappingStruct {... */\n  mstore(0x40, 0x80)\n  callvalue\n  dup1\n  iszero\n  tag_1\n  jumpi\n  0x00\n  dup1\n  revert\ntag_1:\n  pop\n  dataSize(sub_0)\n  dup1\n  dataOffset(sub_0)\n  0x00\n  codecopy\n  0x00\n  return\nstop\n\nsub_0: assembly {\n        /* \"contracts/ContractMappingStruct.sol\":57:1133  contract ContractMappingStruct {... */\n      mstore(0x40, 0x80)\n      jumpi(tag_1, lt(calldatasize, 0x04))\n      shr(0xe0, calldataload(0x00))\n      dup1\n      0x16c05aa2\n      eq\n      tag_2\n      jumpi\n      dup1\n      0x27e235e3\n      eq\n      tag_3\n      jumpi\n      dup1\n      0xf274c897\n      eq\n      tag_4\n      jumpi\n    tag_1:\n      0x00\n      dup1\n      revert\n        /* \"contracts/ContractMappingStruct.sol\":434:745  function depositMoney() public payable {... */\n    tag_2:\n      tag_5\n      tag_6\n      jump\t// in\n    tag_5:\n      stop\n        /* \"contracts/ContractMappingStruct.sol\":384:427  mapping(address => Balance) public balances */\n    tag_3:\n      callvalue\n      dup1\n      iszero\n      tag_7\n      jumpi\n      0x00\n      dup1\n      revert\n    tag_7:\n      pop\n      tag_8\n      0x04\n      dup1\n      calldatasize\n      sub\n      dup2\n      add\n      swap1\n      tag_9\n      swap2\n      swap1\n      tag_10\n      jump\t// in\n    tag_9:\n      tag_11\n      jump\t// in\n    tag_8:\n      mload(0x40)\n      tag_12\n      swap4\n      swap3\n      swap2\n      swap1\n      tag_13\n      jump\t// in\n    tag_12:\n      mload(0x40)\n      dup1\n      swap2\n      sub\n      swap1\n      return\n        /* \"contracts/ContractMappingStruct.sol\":751:1131  function withdrawMoney(address payable _to, uint _amount) public {... */\n    tag_4:\n      callvalue\n      dup1\n      iszero\n      tag_14\n      jumpi\n      0x00\n      dup1\n      revert\n    tag_14:\n      pop\n      tag_15\n      0x04\n      dup1\n      calldatasize\n      sub\n      dup2\n      add\n      swap1\n      tag_16\n      swap2\n      swap1\n      tag_17\n      jump\t// in\n    tag_16:\n      tag_18\n      jump\t// in\n    tag_15:\n      stop\n        /* \"contracts/ContractMappingStruct.sol\":434:745  function depositMoney() public payable {... */\n    tag_6:\n        /* \"contracts/ContractMappingStruct.sol\":520:529  msg.value */\n      callvalue\n        /* \"contracts/ContractMappingStruct.sol\":483:491  balances */\n      0x00\n        /* \"contracts/ContractMappingStruct.sol\":483:503  balances[msg.sender] */\n      dup1\n        /* \"contracts/ContractMappingStruct.sol\":492:502  msg.sender */\n      caller\n        /* \"contracts/ContractMappingStruct.sol\":483:503  balances[msg.sender] */\n      0xffffffffffffffffffffffffffffffffffffffff\n      and\n      0xffffffffffffffffffffffffffffffffffffffff\n      and\n      dup2\n      mstore\n      0x20\n      add\n      swap1\n      dup2\n      mstore\n      0x20\n      add\n      0x00\n      keccak256\n        /* \"contracts/ContractMappingStruct.sol\":483:516  balances[msg.sender].totalBalance */\n      0x00\n      add\n      0x00\n        /* \"contracts/ContractMappingStruct.sol\":483:529  balances[msg.sender].totalBalance += msg.value */\n      dup3\n      dup3\n      sload\n      tag_20\n      swap2\n      swap1\n      tag_21\n      jump\t// in\n    tag_20:\n      swap3\n      pop\n      pop\n      dup2\n      swap1\n      sstore\n      pop\n        /* \"contracts/ContractMappingStruct.sol\":539:565  Transaction memory deposit */\n      0x00\n        /* \"contracts/ContractMappingStruct.sol\":568:607  Transaction(msg.value, block.timestamp) */\n      mload(0x40)\n      dup1\n      0x40\n      add\n      0x40\n      mstore\n      dup1\n        /* \"contracts/ContractMappingStruct.sol\":580:589  msg.value */\n      callvalue\n        /* \"contracts/ContractMappingStruct.sol\":568:607  Transaction(msg.value, block.timestamp) */\n      dup2\n      mstore\n      0x20\n      add\n        /* \"contracts/ContractMappingStruct.sol\":591:606  block.timestamp */\n      timestamp\n        /* \"contracts/ContractMappingStruct.sol\":568:607  Transaction(msg.value, block.timestamp) */\n      dup2\n      mstore\n      pop\n        /* \"contracts/ContractMappingStruct.sol\":539:607  Transaction memory deposit = Transaction(msg.value, block.timestamp) */\n      swap1\n      pop\n        /* \"contracts/ContractMappingStruct.sol\":685:692  deposit */\n      dup1\n        /* \"contracts/ContractMappingStruct.sol\":617:625  balances */\n      0x00\n        /* \"contracts/ContractMappingStruct.sol\":617:637  balances[msg.sender] */\n      dup1\n        /* \"contracts/ContractMappingStruct.sol\":626:636  msg.sender */\n      caller\n        /* \"contracts/ContractMappingStruct.sol\":617:637  balances[msg.sender] */\n      0xffffffffffffffffffffffffffffffffffffffff\n      and\n      0xffffffffffffffffffffffffffffffffffffffff\n      and\n      dup2\n      mstore\n      0x20\n      add\n      swap1\n      dup2\n      mstore\n      0x20\n      add\n      0x00\n      keccak256\n        /* \"contracts/ContractMappingStruct.sol\":617:646  balances[msg.sender].deposits */\n      0x02\n      add\n        /* \"contracts/ContractMappingStruct.sol\":617:682  balances[msg.sender].deposits[balances[msg.sender].numOfDeposits] */\n      0x00\n        /* \"contracts/ContractMappingStruct.sol\":647:655  balances */\n      dup1\n        /* \"contracts/ContractMappingStruct.sol\":647:667  balances[msg.sender] */\n      0x00\n        /* \"contracts/ContractMappingStruct.sol\":656:666  msg.sender */\n      caller\n        /* \"contracts/ContractMappingStruct.sol\":647:667  balances[msg.sender] */\n      0xffffffffffffffffffffffffffffffffffffffff\n      and\n      0xffffffffffffffffffffffffffffffffffffffff\n      and\n      dup2\n      mstore\n      0x20\n      add\n      swap1\n      dup2\n      mstore\n      0x20\n      add\n      0x00\n      keccak256\n        /* \"contracts/ContractMappingStruct.sol\":647:681  balances[msg.sender].numOfDeposits */\n      0x01\n      add\n      sload\n        /* \"contracts/ContractMappingStruct.sol\":617:682  balances[msg.sender].deposits[balances[msg.sender].numOfDeposits] */\n      dup2\n      mstore\n      0x20\n      add\n      swap1\n      dup2\n      mstore\n      0x20\n      add\n      0x00\n      keccak256\n        /* \"contracts/ContractMappingStruct.sol\":617:692  balances[msg.sender].deposits[balances[msg.sender].numOfDeposits] = deposit */\n      0x00\n      dup3\n      add\n      mload\n      dup2\n      0x00\n      add\n      sstore\n      0x20\n      dup3\n      add\n      mload\n      dup2\n      0x01\n      add\n      sstore\n      swap1\n      pop\n      pop\n        /* \"contracts/ContractMappingStruct.sol\":702:710  balances */\n      0x00\n        /* \"contracts/ContractMappingStruct.sol\":702:722  balances[msg.sender] */\n      dup1\n        /* \"contracts/ContractMappingStruct.sol\":711:721  msg.sender */\n      caller\n        /* \"contracts/ContractMappingStruct.sol\":702:722  balances[msg.sender] */\n      0xffffffffffffffffffffffffffffffffffffffff\n      and\n      0xffffffffffffffffffffffffffffffffffffffff\n      and\n      dup2\n      mstore\n      0x20\n      add\n      swap1\n      dup2\n      mstore\n      0x20\n      add\n      0x00\n      keccak256\n        /* \"contracts/ContractMappingStruct.sol\":702:736  balances[msg.sender].numOfDeposits */\n      0x01\n      add\n      0x00\n        /* \"contracts/ContractMappingStruct.sol\":702:738  balances[msg.sender].numOfDeposits++ */\n      dup2\n      sload\n      dup1\n      swap3\n      swap2\n      swap1\n      tag_22\n      swap1\n      tag_23\n      jump\t// in\n    tag_22:\n      swap2\n      swap1\n      pop\n      sstore\n      pop\n        /* \"contracts/ContractMappingStruct.sol\":473:745  {... */\n      pop\n        /* \"contracts/ContractMappingStruct.sol\":434:745  function depositMoney() public payable {... */\n      jump\t// out\n        /* \"contracts/ContractMappingStruct.sol\":384:427  mapping(address => Balance) public balances */\n    tag_11:\n      mstore(0x20, 0x00)\n      dup1\n      0x00\n      mstore\n      keccak256(0x00, 0x40)\n      0x00\n      swap2\n      pop\n      swap1\n      pop\n      dup1\n      0x00\n      add\n      sload\n      swap1\n      dup1\n      0x01\n      add\n      sload\n      swap1\n      dup1\n      0x03\n      add\n      sload\n      swap1\n      pop\n      dup4\n      jump\t// out\n        /* \"contracts/ContractMappingStruct.sol\":751:1131  function withdrawMoney(address payable _to, uint _amount) public {... */\n    tag_18:\n        /* \"contracts/ContractMappingStruct.sol\":863:870  _amount */\n      dup1\n        /* \"contracts/ContractMappingStruct.sol\":826:834  balances */\n      0x00\n        /* \"contracts/ContractMappingStruct.sol\":826:846  balances[msg.sender] */\n      dup1\n        /* \"contracts/ContractMappingStruct.sol\":835:845  msg.sender */\n      caller\n        /* \"contracts/ContractMappingStruct.sol\":826:846  balances[msg.sender] */\n      0xffffffffffffffffffffffffffffffffffffffff\n      and\n      0xffffffffffffffffffffffffffffffffffffffff\n      and\n      dup2\n      mstore\n      0x20\n      add\n      swap1\n      dup2\n      mstore\n      0x20\n      add\n      0x00\n      keccak256\n        /* \"contracts/ContractMappingStruct.sol\":826:859  balances[msg.sender].totalBalance */\n      0x00\n      add\n      0x00\n        /* \"contracts/ContractMappingStruct.sol\":826:870  balances[msg.sender].totalBalance -= _amount */\n      dup3\n      dup3\n      sload\n      tag_25\n      swap2\n      swap1\n      tag_26\n      jump\t// in\n    tag_25:\n      swap3\n      pop\n      pop\n      dup2\n      swap1\n      sstore\n      pop\n        /* \"contracts/ContractMappingStruct.sol\":880:909  Transaction memory withdrawal */\n      0x00\n        /* \"contracts/ContractMappingStruct.sol\":912:949  Transaction(_amount, block.timestamp) */\n      mload(0x40)\n      dup1\n      0x40\n      add\n      0x40\n      mstore\n      dup1\n        /* \"contracts/ContractMappingStruct.sol\":924:931  _amount */\n      dup4\n        /* \"contracts/ContractMappingStruct.sol\":912:949  Transaction(_amount, block.timestamp) */\n      dup2\n      mstore\n      0x20\n      add\n        /* \"contracts/ContractMappingStruct.sol\":933:948  block.timestamp */\n      timestamp\n        /* \"contracts/ContractMappingStruct.sol\":912:949  Transaction(_amount, block.timestamp) */\n      dup2\n      mstore\n      pop\n        /* \"contracts/ContractMappingStruct.sol\":880:949  Transaction memory withdrawal = Transaction(_amount, block.timestamp) */\n      swap1\n      pop\n        /* \"contracts/ContractMappingStruct.sol\":1033:1043  withdrawal */\n      dup1\n        /* \"contracts/ContractMappingStruct.sol\":959:967  balances */\n      0x00\n        /* \"contracts/ContractMappingStruct.sol\":959:979  balances[msg.sender] */\n      dup1\n        /* \"contracts/ContractMappingStruct.sol\":968:978  msg.sender */\n      caller\n        /* \"contracts/ContractMappingStruct.sol\":959:979  balances[msg.sender] */\n      0xffffffffffffffffffffffffffffffffffffffff\n      and\n      0xffffffffffffffffffffffffffffffffffffffff\n      and\n      dup2\n      mstore\n      0x20\n      add\n      swap1\n      dup2\n      mstore\n      0x20\n      add\n      0x00\n      keccak256\n        /* \"contracts/ContractMappingStruct.sol\":959:991  balances[msg.sender].withdrawals */\n      0x04\n      add\n        /* \"contracts/ContractMappingStruct.sol\":959:1030  balances[msg.sender].withdrawals[balances[msg.sender].numOfWithdrawals] */\n      0x00\n        /* \"contracts/ContractMappingStruct.sol\":992:1000  balances */\n      dup1\n        /* \"contracts/ContractMappingStruct.sol\":992:1012  balances[msg.sender] */\n      0x00\n        /* \"contracts/ContractMappingStruct.sol\":1001:1011  msg.sender */\n      caller\n        /* \"contracts/ContractMappingStruct.sol\":992:1012  balances[msg.sender] */\n      0xffffffffffffffffffffffffffffffffffffffff\n      and\n      0xffffffffffffffffffffffffffffffffffffffff\n      and\n      dup2\n      mstore\n      0x20\n      add\n      swap1\n      dup2\n      mstore\n      0x20\n      add\n      0x00\n      keccak256\n        /* \"contracts/ContractMappingStruct.sol\":992:1029  balances[msg.sender].numOfWithdrawals */\n      0x03\n      add\n      sload\n        /* \"contracts/ContractMappingStruct.sol\":959:1030  balances[msg.sender].withdrawals[balances[msg.sender].numOfWithdrawals] */\n      dup2\n      mstore\n      0x20\n      add\n      swap1\n      dup2\n      mstore\n      0x20\n      add\n      0x00\n      keccak256\n        /* \"contracts/ContractMappingStruct.sol\":959:1043  balances[msg.sender].withdrawals[balances[msg.sender].numOfWithdrawals] = withdrawal */\n      0x00\n      dup3\n      add\n      mload\n      dup2\n      0x00\n      add\n      sstore\n      0x20\n      dup3\n      add\n      mload\n      dup2\n      0x01\n      add\n      sstore\n      swap1\n      pop\n      pop\n        /* \"contracts/ContractMappingStruct.sol\":1053:1061  balances */\n      0x00\n        /* \"contracts/ContractMappingStruct.sol\":1053:1073  balances[msg.sender] */\n      dup1\n        /* \"contracts/ContractMappingStruct.sol\":1062:1072  msg.sender */\n      caller\n        /* \"contracts/ContractMappingStruct.sol\":1053:1073  balances[msg.sender] */\n      0xffffffffffffffffffffffffffffffffffffffff\n      and\n      0xffffffffffffffffffffffffffffffffffffffff\n      and\n      dup2\n      mstore\n      0x20\n      add\n      swap1\n      dup2\n      mstore\n      0x20\n      add\n      0x00\n      keccak256\n        /* \"contracts/ContractMappingStruct.sol\":1053:1090  balances[msg.sender].numOfWithdrawals */\n      0x03\n      add\n      0x00\n        /* \"contracts/ContractMappingStruct.sol\":1053:1092  balances[msg.sender].numOfWithdrawals++ */\n      dup2\n      sload\n      dup1\n      swap3\n      swap2\n      swap1\n      tag_27\n      swap1\n      tag_23\n      jump\t// in\n    tag_27:\n      swap2\n      swap1\n      pop\n      sstore\n      pop\n        /* \"contracts/ContractMappingStruct.sol\":1103:1106  _to */\n      dup3\n        /* \"contracts/ContractMappingStruct.sol\":1103:1115  _to.transfer */\n      0xffffffffffffffffffffffffffffffffffffffff\n      and\n        /* \"contracts/ContractMappingStruct.sol\":1103:1124  _to.transfer(_amount) */\n      0x08fc\n        /* \"contracts/ContractMappingStruct.sol\":1116:1123  _amount */\n      dup4\n        /* \"contracts/ContractMappingStruct.sol\":1103:1124  _to.transfer(_amount) */\n      swap1\n      dup2\n      iszero\n      mul\n      swap1\n      mload(0x40)\n      0x00\n      mload(0x40)\n      dup1\n      dup4\n      sub\n      dup2\n      dup6\n      dup9\n      dup9\n      call\n      swap4\n      pop\n      pop\n      pop\n      pop\n      iszero\n      dup1\n      iszero\n      tag_29\n      jumpi\n      returndatasize\n      0x00\n      dup1\n      returndatacopy\n      revert(0x00, returndatasize)\n    tag_29:\n      pop\n        /* \"contracts/ContractMappingStruct.sol\":816:1131  {... */\n      pop\n        /* \"contracts/ContractMappingStruct.sol\":751:1131  function withdrawMoney(address payable _to, uint _amount) public {... */\n      pop\n      pop\n      jump\t// out\n        /* \"#utility.yul\":88:205   */\n    tag_31:\n        /* \"#utility.yul\":197:198   */\n      0x00\n        /* \"#utility.yul\":194:195   */\n      dup1\n        /* \"#utility.yul\":187:199   */\n      revert\n        /* \"#utility.yul\":334:460   */\n    tag_33:\n        /* \"#utility.yul\":371:378   */\n      0x00\n        /* \"#utility.yul\":411:453   */\n      0xffffffffffffffffffffffffffffffffffffffff\n        /* \"#utility.yul\":404:409   */\n      dup3\n        /* \"#utility.yul\":400:454   */\n      and\n        /* \"#utility.yul\":389:454   */\n      swap1\n      pop\n        /* \"#utility.yul\":334:460   */\n      swap2\n      swap1\n      pop\n      jump\t// out\n        /* \"#utility.yul\":466:562   */\n    tag_34:\n        /* \"#utility.yul\":503:510   */\n      0x00\n        /* \"#utility.yul\":532:556   */\n      tag_51\n        /* \"#utility.yul\":550:555   */\n      dup3\n        /* \"#utility.yul\":532:556   */\n      tag_33\n      jump\t// in\n    tag_51:\n        /* \"#utility.yul\":521:556   */\n      swap1\n      pop\n        /* \"#utility.yul\":466:562   */\n      swap2\n      swap1\n      pop\n      jump\t// out\n        /* \"#utility.yul\":568:690   */\n    tag_35:\n        /* \"#utility.yul\":641:665   */\n      tag_53\n        /* \"#utility.yul\":659:664   */\n      dup2\n        /* \"#utility.yul\":641:665   */\n      tag_34\n      jump\t// in\n    tag_53:\n        /* \"#utility.yul\":634:639   */\n      dup2\n        /* \"#utility.yul\":631:666   */\n      eq\n        /* \"#utility.yul\":621:684   */\n      tag_54\n      jumpi\n        /* \"#utility.yul\":680:681   */\n      0x00\n        /* \"#utility.yul\":677:678   */\n      dup1\n        /* \"#utility.yul\":670:682   */\n      revert\n        /* \"#utility.yul\":621:684   */\n    tag_54:\n        /* \"#utility.yul\":568:690   */\n      pop\n      jump\t// out\n        /* \"#utility.yul\":696:835   */\n    tag_36:\n        /* \"#utility.yul\":742:747   */\n      0x00\n        /* \"#utility.yul\":780:786   */\n      dup2\n        /* \"#utility.yul\":767:787   */\n      calldataload\n        /* \"#utility.yul\":758:787   */\n      swap1\n      pop\n        /* \"#utility.yul\":796:829   */\n      tag_56\n        /* \"#utility.yul\":823:828   */\n      dup2\n        /* \"#utility.yul\":796:829   */\n      tag_35\n      jump\t// in\n    tag_56:\n        /* \"#utility.yul\":696:835   */\n      swap3\n      swap2\n      pop\n      pop\n      jump\t// out\n        /* \"#utility.yul\":841:1170   */\n    tag_10:\n        /* \"#utility.yul\":900:906   */\n      0x00\n        /* \"#utility.yul\":949:951   */\n      0x20\n        /* \"#utility.yul\":937:946   */\n      dup3\n        /* \"#utility.yul\":928:935   */\n      dup5\n        /* \"#utility.yul\":924:947   */\n      sub\n        /* \"#utility.yul\":920:952   */\n      slt\n        /* \"#utility.yul\":917:1036   */\n      iszero\n      tag_58\n      jumpi\n        /* \"#utility.yul\":955:1034   */\n      tag_59\n      tag_31\n      jump\t// in\n    tag_59:\n        /* \"#utility.yul\":917:1036   */\n    tag_58:\n        /* \"#utility.yul\":1075:1076   */\n      0x00\n        /* \"#utility.yul\":1100:1153   */\n      tag_60\n        /* \"#utility.yul\":1145:1152   */\n      dup5\n        /* \"#utility.yul\":1136:1142   */\n      dup3\n        /* \"#utility.yul\":1125:1134   */\n      dup6\n        /* \"#utility.yul\":1121:1143   */\n      add\n        /* \"#utility.yul\":1100:1153   */\n      tag_36\n      jump\t// in\n    tag_60:\n        /* \"#utility.yul\":1090:1153   */\n      swap2\n      pop\n        /* \"#utility.yul\":1046:1163   */\n      pop\n        /* \"#utility.yul\":841:1170   */\n      swap3\n      swap2\n      pop\n      pop\n      jump\t// out\n        /* \"#utility.yul\":1176:1253   */\n    tag_37:\n        /* \"#utility.yul\":1213:1220   */\n      0x00\n        /* \"#utility.yul\":1242:1247   */\n      dup2\n        /* \"#utility.yul\":1231:1247   */\n      swap1\n      pop\n        /* \"#utility.yul\":1176:1253   */\n      swap2\n      swap1\n      pop\n      jump\t// out\n        /* \"#utility.yul\":1259:1377   */\n    tag_38:\n        /* \"#utility.yul\":1346:1370   */\n      tag_63\n        /* \"#utility.yul\":1364:1369   */\n      dup2\n        /* \"#utility.yul\":1346:1370   */\n      tag_37\n      jump\t// in\n    tag_63:\n        /* \"#utility.yul\":1341:1344   */\n      dup3\n        /* \"#utility.yul\":1334:1371   */\n      mstore\n        /* \"#utility.yul\":1259:1377   */\n      pop\n      pop\n      jump\t// out\n        /* \"#utility.yul\":1383:1825   */\n    tag_13:\n        /* \"#utility.yul\":1532:1536   */\n      0x00\n        /* \"#utility.yul\":1570:1572   */\n      0x60\n        /* \"#utility.yul\":1559:1568   */\n      dup3\n        /* \"#utility.yul\":1555:1573   */\n      add\n        /* \"#utility.yul\":1547:1573   */\n      swap1\n      pop\n        /* \"#utility.yul\":1583:1654   */\n      tag_65\n        /* \"#utility.yul\":1651:1652   */\n      0x00\n        /* \"#utility.yul\":1640:1649   */\n      dup4\n        /* \"#utility.yul\":1636:1653   */\n      add\n        /* \"#utility.yul\":1627:1633   */\n      dup7\n        /* \"#utility.yul\":1583:1654   */\n      tag_38\n      jump\t// in\n    tag_65:\n        /* \"#utility.yul\":1664:1736   */\n      tag_66\n        /* \"#utility.yul\":1732:1734   */\n      0x20\n        /* \"#utility.yul\":1721:1730   */\n      dup4\n        /* \"#utility.yul\":1717:1735   */\n      add\n        /* \"#utility.yul\":1708:1714   */\n      dup6\n        /* \"#utility.yul\":1664:1736   */\n      tag_38\n      jump\t// in\n    tag_66:\n        /* \"#utility.yul\":1746:1818   */\n      tag_67\n        /* \"#utility.yul\":1814:1816   */\n      0x40\n        /* \"#utility.yul\":1803:1812   */\n      dup4\n        /* \"#utility.yul\":1799:1817   */\n      add\n        /* \"#utility.yul\":1790:1796   */\n      dup5\n        /* \"#utility.yul\":1746:1818   */\n      tag_38\n      jump\t// in\n    tag_67:\n        /* \"#utility.yul\":1383:1825   */\n      swap5\n      swap4\n      pop\n      pop\n      pop\n      pop\n      jump\t// out\n        /* \"#utility.yul\":1831:1935   */\n    tag_39:\n        /* \"#utility.yul\":1876:1883   */\n      0x00\n        /* \"#utility.yul\":1905:1929   */\n      tag_69\n        /* \"#utility.yul\":1923:1928   */\n      dup3\n        /* \"#utility.yul\":1905:1929   */\n      tag_33\n      jump\t// in\n    tag_69:\n        /* \"#utility.yul\":1894:1929   */\n      swap1\n      pop\n        /* \"#utility.yul\":1831:1935   */\n      swap2\n      swap1\n      pop\n      jump\t// out\n        /* \"#utility.yul\":1941:2079   */\n    tag_40:\n        /* \"#utility.yul\":2022:2054   */\n      tag_71\n        /* \"#utility.yul\":2048:2053   */\n      dup2\n        /* \"#utility.yul\":2022:2054   */\n      tag_39\n      jump\t// in\n    tag_71:\n        /* \"#utility.yul\":2015:2020   */\n      dup2\n        /* \"#utility.yul\":2012:2055   */\n      eq\n        /* \"#utility.yul\":2002:2073   */\n      tag_72\n      jumpi\n        /* \"#utility.yul\":2069:2070   */\n      0x00\n        /* \"#utility.yul\":2066:2067   */\n      dup1\n        /* \"#utility.yul\":2059:2071   */\n      revert\n        /* \"#utility.yul\":2002:2073   */\n    tag_72:\n        /* \"#utility.yul\":1941:2079   */\n      pop\n      jump\t// out\n        /* \"#utility.yul\":2085:2240   */\n    tag_41:\n        /* \"#utility.yul\":2139:2144   */\n      0x00\n        /* \"#utility.yul\":2177:2183   */\n      dup2\n        /* \"#utility.yul\":2164:2184   */\n      calldataload\n        /* \"#utility.yul\":2155:2184   */\n      swap1\n      pop\n        /* \"#utility.yul\":2193:2234   */\n      tag_74\n        /* \"#utility.yul\":2228:2233   */\n      dup2\n        /* \"#utility.yul\":2193:2234   */\n      tag_40\n      jump\t// in\n    tag_74:\n        /* \"#utility.yul\":2085:2240   */\n      swap3\n      swap2\n      pop\n      pop\n      jump\t// out\n        /* \"#utility.yul\":2246:2368   */\n    tag_42:\n        /* \"#utility.yul\":2319:2343   */\n      tag_76\n        /* \"#utility.yul\":2337:2342   */\n      dup2\n        /* \"#utility.yul\":2319:2343   */\n      tag_37\n      jump\t// in\n    tag_76:\n        /* \"#utility.yul\":2312:2317   */\n      dup2\n        /* \"#utility.yul\":2309:2344   */\n      eq\n        /* \"#utility.yul\":2299:2362   */\n      tag_77\n      jumpi\n        /* \"#utility.yul\":2358:2359   */\n      0x00\n        /* \"#utility.yul\":2355:2356   */\n      dup1\n        /* \"#utility.yul\":2348:2360   */\n      revert\n        /* \"#utility.yul\":2299:2362   */\n    tag_77:\n        /* \"#utility.yul\":2246:2368   */\n      pop\n      jump\t// out\n        /* \"#utility.yul\":2374:2513   */\n    tag_43:\n        /* \"#utility.yul\":2420:2425   */\n      0x00\n        /* \"#utility.yul\":2458:2464   */\n      dup2\n        /* \"#utility.yul\":2445:2465   */\n      calldataload\n        /* \"#utility.yul\":2436:2465   */\n      swap1\n      pop\n        /* \"#utility.yul\":2474:2507   */\n      tag_79\n        /* \"#utility.yul\":2501:2506   */\n      dup2\n        /* \"#utility.yul\":2474:2507   */\n      tag_42\n      jump\t// in\n    tag_79:\n        /* \"#utility.yul\":2374:2513   */\n      swap3\n      swap2\n      pop\n      pop\n      jump\t// out\n        /* \"#utility.yul\":2519:3009   */\n    tag_17:\n        /* \"#utility.yul\":2595:2601   */\n      0x00\n        /* \"#utility.yul\":2603:2609   */\n      dup1\n        /* \"#utility.yul\":2652:2654   */\n      0x40\n        /* \"#utility.yul\":2640:2649   */\n      dup4\n        /* \"#utility.yul\":2631:2638   */\n      dup6\n        /* \"#utility.yul\":2627:2650   */\n      sub\n        /* \"#utility.yul\":2623:2655   */\n      slt\n        /* \"#utility.yul\":2620:2739   */\n      iszero\n      tag_81\n      jumpi\n        /* \"#utility.yul\":2658:2737   */\n      tag_82\n      tag_31\n      jump\t// in\n    tag_82:\n        /* \"#utility.yul\":2620:2739   */\n    tag_81:\n        /* \"#utility.yul\":2778:2779   */\n      0x00\n        /* \"#utility.yul\":2803:2864   */\n      tag_83\n        /* \"#utility.yul\":2856:2863   */\n      dup6\n        /* \"#utility.yul\":2847:2853   */\n      dup3\n        /* \"#utility.yul\":2836:2845   */\n      dup7\n        /* \"#utility.yul\":2832:2854   */\n      add\n        /* \"#utility.yul\":2803:2864   */\n      tag_41\n      jump\t// in\n    tag_83:\n        /* \"#utility.yul\":2793:2864   */\n      swap3\n      pop\n        /* \"#utility.yul\":2749:2874   */\n      pop\n        /* \"#utility.yul\":2913:2915   */\n      0x20\n        /* \"#utility.yul\":2939:2992   */\n      tag_84\n        /* \"#utility.yul\":2984:2991   */\n      dup6\n        /* \"#utility.yul\":2975:2981   */\n      dup3\n        /* \"#utility.yul\":2964:2973   */\n      dup7\n        /* \"#utility.yul\":2960:2982   */\n      add\n        /* \"#utility.yul\":2939:2992   */\n      tag_43\n      jump\t// in\n    tag_84:\n        /* \"#utility.yul\":2929:2992   */\n      swap2\n      pop\n        /* \"#utility.yul\":2884:3002   */\n      pop\n        /* \"#utility.yul\":2519:3009   */\n      swap3\n      pop\n      swap3\n      swap1\n      pop\n      jump\t// out\n        /* \"#utility.yul\":3015:3195   */\n    tag_44:\n        /* \"#utility.yul\":3063:3140   */\n      0x4e487b7100000000000000000000000000000000000000000000000000000000\n        /* \"#utility.yul\":3060:3061   */\n      0x00\n        /* \"#utility.yul\":3053:3141   */\n      mstore\n        /* \"#utility.yul\":3160:3164   */\n      0x11\n        /* \"#utility.yul\":3157:3158   */\n      0x04\n        /* \"#utility.yul\":3150:3165   */\n      mstore\n        /* \"#utility.yul\":3184:3188   */\n      0x24\n        /* \"#utility.yul\":3181:3182   */\n      0x00\n        /* \"#utility.yul\":3174:3189   */\n      revert\n        /* \"#utility.yul\":3201:3506   */\n    tag_21:\n        /* \"#utility.yul\":3241:3244   */\n      0x00\n        /* \"#utility.yul\":3260:3280   */\n      tag_87\n        /* \"#utility.yul\":3278:3279   */\n      dup3\n        /* \"#utility.yul\":3260:3280   */\n      tag_37\n      jump\t// in\n    tag_87:\n        /* \"#utility.yul\":3255:3280   */\n      swap2\n      pop\n        /* \"#utility.yul\":3294:3314   */\n      tag_88\n        /* \"#utility.yul\":3312:3313   */\n      dup4\n        /* \"#utility.yul\":3294:3314   */\n      tag_37\n      jump\t// in\n    tag_88:\n        /* \"#utility.yul\":3289:3314   */\n      swap3\n      pop\n        /* \"#utility.yul\":3448:3449   */\n      dup3\n        /* \"#utility.yul\":3380:3446   */\n      0xffffffffffffffffffffffffffffffffffffffffffffffffffffffffffffffff\n        /* \"#utility.yul\":3376:3450   */\n      sub\n        /* \"#utility.yul\":3373:3374   */\n      dup3\n        /* \"#utility.yul\":3370:3451   */\n      gt\n        /* \"#utility.yul\":3367:3474   */\n      iszero\n      tag_89\n      jumpi\n        /* \"#utility.yul\":3454:3472   */\n      tag_90\n      tag_44\n      jump\t// in\n    tag_90:\n        /* \"#utility.yul\":3367:3474   */\n    tag_89:\n        /* \"#utility.yul\":3498:3499   */\n      dup3\n        /* \"#utility.yul\":3495:3496   */\n      dup3\n        /* \"#utility.yul\":3491:3500   */\n      add\n        /* \"#utility.yul\":3484:3500   */\n      swap1\n      pop\n        /* \"#utility.yul\":3201:3506   */\n      swap3\n      swap2\n      pop\n      pop\n      jump\t// out\n        /* \"#utility.yul\":3512:3745   */\n    tag_23:\n        /* \"#utility.yul\":3551:3554   */\n      0x00\n        /* \"#utility.yul\":3574:3598   */\n      tag_92\n        /* \"#utility.yul\":3592:3597   */\n      dup3\n        /* \"#utility.yul\":3574:3598   */\n      tag_37\n      jump\t// in\n    tag_92:\n        /* \"#utility.yul\":3565:3598   */\n      swap2\n      pop\n        /* \"#utility.yul\":3620:3686   */\n      0xffffffffffffffffffffffffffffffffffffffffffffffffffffffffffffffff\n        /* \"#utility.yul\":3613:3618   */\n      dup3\n        /* \"#utility.yul\":3610:3687   */\n      sub\n        /* \"#utility.yul\":3607:3710   */\n      tag_93\n      jumpi\n        /* \"#utility.yul\":3690:3708   */\n      tag_94\n      tag_44\n      jump\t// in\n    tag_94:\n        /* \"#utility.yul\":3607:3710   */\n    tag_93:\n        /* \"#utility.yul\":3737:3738   */\n      0x01\n        /* \"#utility.yul\":3730:3735   */\n      dup3\n        /* \"#utility.yul\":3726:3739   */\n      add\n        /* \"#utility.yul\":3719:3739   */\n      swap1\n      pop\n        /* \"#utility.yul\":3512:3745   */\n      swap2\n      swap1\n      pop\n      jump\t// out\n        /* \"#utility.yul\":3751:3942   */\n    tag_26:\n        /* \"#utility.yul\":3791:3795   */\n      0x00\n        /* \"#utility.yul\":3811:3831   */\n      tag_96\n        /* \"#utility.yul\":3829:3830   */\n      dup3\n        /* \"#utility.yul\":3811:3831   */\n      tag_37\n      jump\t// in\n    tag_96:\n        /* \"#utility.yul\":3806:3831   */\n      swap2\n      pop\n        /* \"#utility.yul\":3845:3865   */\n      tag_97\n        /* \"#utility.yul\":3863:3864   */\n      dup4\n        /* \"#utility.yul\":3845:3865   */\n      tag_37\n      jump\t// in\n    tag_97:\n        /* \"#utility.yul\":3840:3865   */\n      swap3\n      pop\n        /* \"#utility.yul\":3884:3885   */\n      dup3\n        /* \"#utility.yul\":3881:3882   */\n      dup3\n        /* \"#utility.yul\":3878:3886   */\n      lt\n        /* \"#utility.yul\":3875:3909   */\n      iszero\n      tag_98\n      jumpi\n        /* \"#utility.yul\":3889:3907   */\n      tag_99\n      tag_44\n      jump\t// in\n    tag_99:\n        /* \"#utility.yul\":3875:3909   */\n    tag_98:\n        /* \"#utility.yul\":3934:3935   */\n      dup3\n        /* \"#utility.yul\":3931:3932   */\n      dup3\n        /* \"#utility.yul\":3927:3936   */\n      sub\n        /* \"#utility.yul\":3919:3936   */\n      swap1\n      pop\n        /* \"#utility.yul\":3751:3942   */\n      swap3\n      swap2\n      pop\n      pop\n      jump\t// out\n\n    auxdata: 0xa264697066735822122075488172695b66739e37b52613afbd23fcebf82db8eee27d901698da9f0cfa1164736f6c634300080e0033\n}\n",
				"bytecode": {
					"linkReferences": {},
					"object": "608060405234801561001057600080fd5b506106cb806100206000396000f3fe6080604052600436106100345760003560e01c806316c05aa21461003957806327e235e314610043578063f274c89714610082575b600080fd5b6100416100ab565b005b34801561004f57600080fd5b5061006a6004803603810190610065919061046d565b610221565b604051610079939291906104b3565b60405180910390f35b34801561008e57600080fd5b506100a960048036038101906100a49190610554565b61024b565b005b346000803373ffffffffffffffffffffffffffffffffffffffff1673ffffffffffffffffffffffffffffffffffffffff16815260200190815260200160002060000160008282546100fc91906105c3565b9250508190555060006040518060400160405280348152602001428152509050806000803373ffffffffffffffffffffffffffffffffffffffff1673ffffffffffffffffffffffffffffffffffffffff16815260200190815260200160002060020160008060003373ffffffffffffffffffffffffffffffffffffffff1673ffffffffffffffffffffffffffffffffffffffff16815260200190815260200160002060010154815260200190815260200160002060008201518160000155602082015181600101559050506000803373ffffffffffffffffffffffffffffffffffffffff1673ffffffffffffffffffffffffffffffffffffffff168152602001908152602001600020600101600081548092919061021990610619565b919050555050565b60006020528060005260406000206000915090508060000154908060010154908060030154905083565b806000803373ffffffffffffffffffffffffffffffffffffffff1673ffffffffffffffffffffffffffffffffffffffff168152602001908152602001600020600001600082825461029c9190610661565b9250508190555060006040518060400160405280838152602001428152509050806000803373ffffffffffffffffffffffffffffffffffffffff1673ffffffffffffffffffffffffffffffffffffffff16815260200190815260200160002060040160008060003373ffffffffffffffffffffffffffffffffffffffff1673ffffffffffffffffffffffffffffffffffffffff16815260200190815260200160002060030154815260200190815260200160002060008201518160000155602082015181600101559050506000803373ffffffffffffffffffffffffffffffffffffffff1673ffffffffffffffffffffffffffffffffffffffff16815260200190815260200160002060030160008154809291906103b990610619565b91905055508273ffffffffffffffffffffffffffffffffffffffff166108fc839081150290604051600060405180830381858888f19350505050158015610404573d6000803e3d6000fd5b50505050565b600080fd5b600073ffffffffffffffffffffffffffffffffffffffff82169050919050565b600061043a8261040f565b9050919050565b61044a8161042f565b811461045557600080fd5b50565b60008135905061046781610441565b92915050565b6000602082840312156104835761048261040a565b5b600061049184828501610458565b91505092915050565b6000819050919050565b6104ad8161049a565b82525050565b60006060820190506104c860008301866104a4565b6104d560208301856104a4565b6104e260408301846104a4565b949350505050565b60006104f58261040f565b9050919050565b610505816104ea565b811461051057600080fd5b50565b600081359050610522816104fc565b92915050565b6105318161049a565b811461053c57600080fd5b50565b60008135905061054e81610528565b92915050565b6000806040838503121561056b5761056a61040a565b5b600061057985828601610513565b925050602061058a8582860161053f565b9150509250929050565b7f4e487b7100000000000000000000000000000000000000000000000000000000600052601160045260246000fd5b60006105ce8261049a565b91506105d98361049a565b9250827fffffffffffffffffffffffffffffffffffffffffffffffffffffffffffffffff0382111561060e5761060d610594565b5b828201905092915050565b60006106248261049a565b91507fffffffffffffffffffffffffffffffffffffffffffffffffffffffffffffffff820361065657610655610594565b5b600182019050919050565b600061066c8261049a565b91506106778361049a565b92508282101561068a57610689610594565b5b82820390509291505056fea264697066735822122075488172695b66739e37b52613afbd23fcebf82db8eee27d901698da9f0cfa1164736f6c634300080e0033",
					"opcodes": "PUSH1 0x80 PUSH1 0x40 MSTORE CALLVALUE DUP1 ISZERO PUSH2 0x10 JUMPI PUSH1 0x0 DUP1 REVERT JUMPDEST POP PUSH2 0x6CB DUP1 PUSH2 0x20 PUSH1 0x0 CODECOPY PUSH1 0x0 RETURN INVALID PUSH1 0x80 PUSH1 0x40 MSTORE PUSH1 0x4 CALLDATASIZE LT PUSH2 0x34 JUMPI PUSH1 0x0 CALLDATALOAD PUSH1 0xE0 SHR DUP1 PUSH4 0x16C05AA2 EQ PUSH2 0x39 JUMPI DUP1 PUSH4 0x27E235E3 EQ PUSH2 0x43 JUMPI DUP1 PUSH4 0xF274C897 EQ PUSH2 0x82 JUMPI JUMPDEST PUSH1 0x0 DUP1 REVERT JUMPDEST PUSH2 0x41 PUSH2 0xAB JUMP JUMPDEST STOP JUMPDEST CALLVALUE DUP1 ISZERO PUSH2 0x4F JUMPI PUSH1 0x0 DUP1 REVERT JUMPDEST POP PUSH2 0x6A PUSH1 0x4 DUP1 CALLDATASIZE SUB DUP2 ADD SWAP1 PUSH2 0x65 SWAP2 SWAP1 PUSH2 0x46D JUMP JUMPDEST PUSH2 0x221 JUMP JUMPDEST PUSH1 0x40 MLOAD PUSH2 0x79 SWAP4 SWAP3 SWAP2 SWAP1 PUSH2 0x4B3 JUMP JUMPDEST PUSH1 0x40 MLOAD DUP1 SWAP2 SUB SWAP1 RETURN JUMPDEST CALLVALUE DUP1 ISZERO PUSH2 0x8E JUMPI PUSH1 0x0 DUP1 REVERT JUMPDEST POP PUSH2 0xA9 PUSH1 0x4 DUP1 CALLDATASIZE SUB DUP2 ADD SWAP1 PUSH2 0xA4 SWAP2 SWAP1 PUSH2 0x554 JUMP JUMPDEST PUSH2 0x24B JUMP JUMPDEST STOP JUMPDEST CALLVALUE PUSH1 0x0 DUP1 CALLER PUSH20 0xFFFFFFFFFFFFFFFFFFFFFFFFFFFFFFFFFFFFFFFF AND PUSH20 0xFFFFFFFFFFFFFFFFFFFFFFFFFFFFFFFFFFFFFFFF AND DUP2 MSTORE PUSH1 0x20 ADD SWAP1 DUP2 MSTORE PUSH1 0x20 ADD PUSH1 0x0 KECCAK256 PUSH1 0x0 ADD PUSH1 0x0 DUP3 DUP3 SLOAD PUSH2 0xFC SWAP2 SWAP1 PUSH2 0x5C3 JUMP JUMPDEST SWAP3 POP POP DUP2 SWAP1 SSTORE POP PUSH1 0x0 PUSH1 0x40 MLOAD DUP1 PUSH1 0x40 ADD PUSH1 0x40 MSTORE DUP1 CALLVALUE DUP2 MSTORE PUSH1 0x20 ADD TIMESTAMP DUP2 MSTORE POP SWAP1 POP DUP1 PUSH1 0x0 DUP1 CALLER PUSH20 0xFFFFFFFFFFFFFFFFFFFFFFFFFFFFFFFFFFFFFFFF AND PUSH20 0xFFFFFFFFFFFFFFFFFFFFFFFFFFFFFFFFFFFFFFFF AND DUP2 MSTORE PUSH1 0x20 ADD SWAP1 DUP2 MSTORE PUSH1 0x20 ADD PUSH1 0x0 KECCAK256 PUSH1 0x2 ADD PUSH1 0x0 DUP1 PUSH1 0x0 CALLER PUSH20 0xFFFFFFFFFFFFFFFFFFFFFFFFFFFFFFFFFFFFFFFF AND PUSH20 0xFFFFFFFFFFFFFFFFFFFFFFFFFFFFFFFFFFFFFFFF AND DUP2 MSTORE PUSH1 0x20 ADD SWAP1 DUP2 MSTORE PUSH1 0x20 ADD PUSH1 0x0 KECCAK256 PUSH1 0x1 ADD SLOAD DUP2 MSTORE PUSH1 0x20 ADD SWAP1 DUP2 MSTORE PUSH1 0x20 ADD PUSH1 0x0 KECCAK256 PUSH1 0x0 DUP3 ADD MLOAD DUP2 PUSH1 0x0 ADD SSTORE PUSH1 0x20 DUP3 ADD MLOAD DUP2 PUSH1 0x1 ADD SSTORE SWAP1 POP POP PUSH1 0x0 DUP1 CALLER PUSH20 0xFFFFFFFFFFFFFFFFFFFFFFFFFFFFFFFFFFFFFFFF AND PUSH20 0xFFFFFFFFFFFFFFFFFFFFFFFFFFFFFFFFFFFFFFFF AND DUP2 MSTORE PUSH1 0x20 ADD SWAP1 DUP2 MSTORE PUSH1 0x20 ADD PUSH1 0x0 KECCAK256 PUSH1 0x1 ADD PUSH1 0x0 DUP2 SLOAD DUP1 SWAP3 SWAP2 SWAP1 PUSH2 0x219 SWAP1 PUSH2 0x619 JUMP JUMPDEST SWAP2 SWAP1 POP SSTORE POP POP JUMP JUMPDEST PUSH1 0x0 PUSH1 0x20 MSTORE DUP1 PUSH1 0x0 MSTORE PUSH1 0x40 PUSH1 0x0 KECCAK256 PUSH1 0x0 SWAP2 POP SWAP1 POP DUP1 PUSH1 0x0 ADD SLOAD SWAP1 DUP1 PUSH1 0x1 ADD SLOAD SWAP1 DUP1 PUSH1 0x3 ADD SLOAD SWAP1 POP DUP4 JUMP JUMPDEST DUP1 PUSH1 0x0 DUP1 CALLER PUSH20 0xFFFFFFFFFFFFFFFFFFFFFFFFFFFFFFFFFFFFFFFF AND PUSH20 0xFFFFFFFFFFFFFFFFFFFFFFFFFFFFFFFFFFFFFFFF AND DUP2 MSTORE PUSH1 0x20 ADD SWAP1 DUP2 MSTORE PUSH1 0x20 ADD PUSH1 0x0 KECCAK256 PUSH1 0x0 ADD PUSH1 0x0 DUP3 DUP3 SLOAD PUSH2 0x29C SWAP2 SWAP1 PUSH2 0x661 JUMP JUMPDEST SWAP3 POP POP DUP2 SWAP1 SSTORE POP PUSH1 0x0 PUSH1 0x40 MLOAD DUP1 PUSH1 0x40 ADD PUSH1 0x40 MSTORE DUP1 DUP4 DUP2 MSTORE PUSH1 0x20 ADD TIMESTAMP DUP2 MSTORE POP SWAP1 POP DUP1 PUSH1 0x0 DUP1 CALLER PUSH20 0xFFFFFFFFFFFFFFFFFFFFFFFFFFFFFFFFFFFFFFFF AND PUSH20 0xFFFFFFFFFFFFFFFFFFFFFFFFFFFFFFFFFFFFFFFF AND DUP2 MSTORE PUSH1 0x20 ADD SWAP1 DUP2 MSTORE PUSH1 0x20 ADD PUSH1 0x0 KECCAK256 PUSH1 0x4 ADD PUSH1 0x0 DUP1 PUSH1 0x0 CALLER PUSH20 0xFFFFFFFFFFFFFFFFFFFFFFFFFFFFFFFFFFFFFFFF AND PUSH20 0xFFFFFFFFFFFFFFFFFFFFFFFFFFFFFFFFFFFFFFFF AND DUP2 MSTORE PUSH1 0x20 ADD SWAP1 DUP2 MSTORE PUSH1 0x20 ADD PUSH1 0x0 KECCAK256 PUSH1 0x3 ADD SLOAD DUP2 MSTORE PUSH1 0x20 ADD SWAP1 DUP2 MSTORE PUSH1 0x20 ADD PUSH1 0x0 KECCAK256 PUSH1 0x0 DUP3 ADD MLOAD DUP2 PUSH1 0x0 ADD SSTORE PUSH1 0x20 DUP3 ADD MLOAD DUP2 PUSH1 0x1 ADD SSTORE SWAP1 POP POP PUSH1 0x0 DUP1 CALLER PUSH20 0xFFFFFFFFFFFFFFFFFFFFFFFFFFFFFFFFFFFFFFFF AND PUSH20 0xFFFFFFFFFFFFFFFFFFFFFFFFFFFFFFFFFFFFFFFF AND DUP2 MSTORE PUSH1 0x20 ADD SWAP1 DUP2 MSTORE PUSH1 0x20 ADD PUSH1 0x0 KECCAK256 PUSH1 0x3 ADD PUSH1 0x0 DUP2 SLOAD DUP1 SWAP3 SWAP2 SWAP1 PUSH2 0x3B9 SWAP1 PUSH2 0x619 JUMP JUMPDEST SWAP2 SWAP1 POP SSTORE POP DUP3 PUSH20 0xFFFFFFFFFFFFFFFFFFFFFFFFFFFFFFFFFFFFFFFF AND PUSH2 0x8FC DUP4 SWAP1 DUP2 ISZERO MUL SWAP1 PUSH1 0x40 MLOAD PUSH1 0x0 PUSH1 0x40 MLOAD DUP1 DUP4 SUB DUP2 DUP6 DUP9 DUP9 CALL SWAP4 POP POP POP POP ISZERO DUP1 ISZERO PUSH2 0x404 JUMPI RETURNDATASIZE PUSH1 0x0 DUP1 RETURNDATACOPY RETURNDATASIZE PUSH1 0x0 REVERT JUMPDEST POP POP POP POP JUMP JUMPDEST PUSH1 0x0 DUP1 REVERT JUMPDEST PUSH1 0x0 PUSH20 0xFFFFFFFFFFFFFFFFFFFFFFFFFFFFFFFFFFFFFFFF DUP3 AND SWAP1 POP SWAP2 SWAP1 POP JUMP JUMPDEST PUSH1 0x0 PUSH2 0x43A DUP3 PUSH2 0x40F JUMP JUMPDEST SWAP1 POP SWAP2 SWAP1 POP JUMP JUMPDEST PUSH2 0x44A DUP2 PUSH2 0x42F JUMP JUMPDEST DUP2 EQ PUSH2 0x455 JUMPI PUSH1 0x0 DUP1 REVERT JUMPDEST POP JUMP JUMPDEST PUSH1 0x0 DUP2 CALLDATALOAD SWAP1 POP PUSH2 0x467 DUP2 PUSH2 0x441 JUMP JUMPDEST SWAP3 SWAP2 POP POP JUMP JUMPDEST PUSH1 0x0 PUSH1 0x20 DUP3 DUP5 SUB SLT ISZERO PUSH2 0x483 JUMPI PUSH2 0x482 PUSH2 0x40A JUMP JUMPDEST JUMPDEST PUSH1 0x0 PUSH2 0x491 DUP5 DUP3 DUP6 ADD PUSH2 0x458 JUMP JUMPDEST SWAP2 POP POP SWAP3 SWAP2 POP POP JUMP JUMPDEST PUSH1 0x0 DUP2 SWAP1 POP SWAP2 SWAP1 POP JUMP JUMPDEST PUSH2 0x4AD DUP2 PUSH2 0x49A JUMP JUMPDEST DUP3 MSTORE POP POP JUMP JUMPDEST PUSH1 0x0 PUSH1 0x60 DUP3 ADD SWAP1 POP PUSH2 0x4C8 PUSH1 0x0 DUP4 ADD DUP7 PUSH2 0x4A4 JUMP JUMPDEST PUSH2 0x4D5 PUSH1 0x20 DUP4 ADD DUP6 PUSH2 0x4A4 JUMP JUMPDEST PUSH2 0x4E2 PUSH1 0x40 DUP4 ADD DUP5 PUSH2 0x4A4 JUMP JUMPDEST SWAP5 SWAP4 POP POP POP POP JUMP JUMPDEST PUSH1 0x0 PUSH2 0x4F5 DUP3 PUSH2 0x40F JUMP JUMPDEST SWAP1 POP SWAP2 SWAP1 POP JUMP JUMPDEST PUSH2 0x505 DUP2 PUSH2 0x4EA JUMP JUMPDEST DUP2 EQ PUSH2 0x510 JUMPI PUSH1 0x0 DUP1 REVERT JUMPDEST POP JUMP JUMPDEST PUSH1 0x0 DUP2 CALLDATALOAD SWAP1 POP PUSH2 0x522 DUP2 PUSH2 0x4FC JUMP JUMPDEST SWAP3 SWAP2 POP POP JUMP JUMPDEST PUSH2 0x531 DUP2 PUSH2 0x49A JUMP JUMPDEST DUP2 EQ PUSH2 0x53C JUMPI PUSH1 0x0 DUP1 REVERT JUMPDEST POP JUMP JUMPDEST PUSH1 0x0 DUP2 CALLDATALOAD SWAP1 POP PUSH2 0x54E DUP2 PUSH2 0x528 JUMP JUMPDEST SWAP3 SWAP2 POP POP JUMP JUMPDEST PUSH1 0x0 DUP1 PUSH1 0x40 DUP4 DUP6 SUB SLT ISZERO PUSH2 0x56B JUMPI PUSH2 0x56A PUSH2 0x40A JUMP JUMPDEST JUMPDEST PUSH1 0x0 PUSH2 0x579 DUP6 DUP3 DUP7 ADD PUSH2 0x513 JUMP JUMPDEST SWAP3 POP POP PUSH1 0x20 PUSH2 0x58A DUP6 DUP3 DUP7 ADD PUSH2 0x53F JUMP JUMPDEST SWAP2 POP POP SWAP3 POP SWAP3 SWAP1 POP JUMP JUMPDEST PUSH32 0x4E487B7100000000000000000000000000000000000000000000000000000000 PUSH1 0x0 MSTORE PUSH1 0x11 PUSH1 0x4 MSTORE PUSH1 0x24 PUSH1 0x0 REVERT JUMPDEST PUSH1 0x0 PUSH2 0x5CE DUP3 PUSH2 0x49A JUMP JUMPDEST SWAP2 POP PUSH2 0x5D9 DUP4 PUSH2 0x49A JUMP JUMPDEST SWAP3 POP DUP3 PUSH32 0xFFFFFFFFFFFFFFFFFFFFFFFFFFFFFFFFFFFFFFFFFFFFFFFFFFFFFFFFFFFFFFFF SUB DUP3 GT ISZERO PUSH2 0x60E JUMPI PUSH2 0x60D PUSH2 0x594 JUMP JUMPDEST JUMPDEST DUP3 DUP3 ADD SWAP1 POP SWAP3 SWAP2 POP POP JUMP JUMPDEST PUSH1 0x0 PUSH2 0x624 DUP3 PUSH2 0x49A JUMP JUMPDEST SWAP2 POP PUSH32 0xFFFFFFFFFFFFFFFFFFFFFFFFFFFFFFFFFFFFFFFFFFFFFFFFFFFFFFFFFFFFFFFF DUP3 SUB PUSH2 0x656 JUMPI PUSH2 0x655 PUSH2 0x594 JUMP JUMPDEST JUMPDEST PUSH1 0x1 DUP3 ADD SWAP1 POP SWAP2 SWAP1 POP JUMP JUMPDEST PUSH1 0x0 PUSH2 0x66C DUP3 PUSH2 0x49A JUMP JUMPDEST SWAP2 POP PUSH2 0x677 DUP4 PUSH2 0x49A JUMP JUMPDEST SWAP3 POP DUP3 DUP3 LT ISZERO PUSH2 0x68A JUMPI PUSH2 0x689 PUSH2 0x594 JUMP JUMPDEST JUMPDEST DUP3 DUP3 SUB SWAP1 POP SWAP3 SWAP2 POP POP JUMP INVALID LOG2 PUSH5 0x6970667358 0x22 SLT KECCAK256 PUSH22 0x488172695B66739E37B52613AFBD23FCEBF82DB8EEE2 PUSH30 0x901698DA9F0CFA1164736F6C634300080E00330000000000000000000000 "
				},
				"gasEstimates": {
					"creation": {
						"codeDepositCost": "347800",
						"executionCost": "386",
						"totalCost": "348186"
					},
					"external": {
						"balances(address)": "infinite",
						"depositMoney()": "infinite",
						"withdrawMoney(address,uint256)": "infinite"
					}
				},
				"methodIdentifiers": {
					"balances(address)": "27e235e3",
					"depositMoney()": "16c05aa2",
					"withdrawMoney(address,uint256)": "f274c897"
				}
			},
			"storageLayout": {
				"storage": [
					{
						"astId": 28,
						"contract": "contracts/ContractMappingStruct.sol:ContractMappingStruct",
						"label": "balances",
						"offset": 0,
						"slot": "0",
						"type": "t_mapping(t_address,t_struct(Balance)23_storage)"
					}
				],
				"types": {
					"t_address": {
						"encoding": "inplace",
						"label": "address",
						"numberOfBytes": "20"
					},
					"t_mapping(t_address,t_struct(Balance)23_storage)": {
						"encoding": "mapping",
						"key": "t_address",
						"label": "mapping(address => struct ContractMappingStruct.Balance)",
						"numberOfBytes": "32",
						"value": "t_struct(Balance)23_storage"
					},
					"t_mapping(t_uint256,t_struct(Transaction)6_storage)": {
						"encoding": "mapping",
						"key": "t_uint256",
						"label": "mapping(uint256 => struct ContractMappingStruct.Transaction)",
						"numberOfBytes": "32",
						"value": "t_struct(Transaction)6_storage"
					},
					"t_struct(Balance)23_storage": {
						"encoding": "inplace",
						"label": "struct ContractMappingStruct.Balance",
						"members": [
							{
								"astId": 8,
								"contract": "contracts/ContractMappingStruct.sol:ContractMappingStruct",
								"label": "totalBalance",
								"offset": 0,
								"slot": "0",
								"type": "t_uint256"
							},
							{
								"astId": 10,
								"contract": "contracts/ContractMappingStruct.sol:ContractMappingStruct",
								"label": "numOfDeposits",
								"offset": 0,
								"slot": "1",
								"type": "t_uint256"
							},
							{
								"astId": 15,
								"contract": "contracts/ContractMappingStruct.sol:ContractMappingStruct",
								"label": "deposits",
								"offset": 0,
								"slot": "2",
								"type": "t_mapping(t_uint256,t_struct(Transaction)6_storage)"
							},
							{
								"astId": 17,
								"contract": "contracts/ContractMappingStruct.sol:ContractMappingStruct",
								"label": "numOfWithdrawals",
								"offset": 0,
								"slot": "3",
								"type": "t_uint256"
							},
							{
								"astId": 22,
								"contract": "contracts/ContractMappingStruct.sol:ContractMappingStruct",
								"label": "withdrawals",
								"offset": 0,
								"slot": "4",
								"type": "t_mapping(t_uint256,t_struct(Transaction)6_storage)"
							}
						],
						"numberOfBytes": "160"
					},
					"t_struct(Transaction)6_storage": {
						"encoding": "inplace",
						"label": "struct ContractMappingStruct.Transaction",
						"members": [
							{
								"astId": 3,
								"contract": "contracts/ContractMappingStruct.sol:ContractMappingStruct",
								"label": "amount",
								"offset": 0,
								"slot": "0",
								"type": "t_uint256"
							},
							{
								"astId": 5,
								"contract": "contracts/ContractMappingStruct.sol:ContractMappingStruct",
								"label": "timestamp",
								"offset": 0,
								"slot": "1",
								"type": "t_uint256"
							}
						],
						"numberOfBytes": "64"
					},
					"t_uint256": {
						"encoding": "inplace",
						"label": "uint256",
						"numberOfBytes": "32"
					}
				}
			},
			"userdoc": {
				"kind": "user",
				"methods": {},
				"version": 1
			}
		}
	}
}